:100000000C9466000C94A8010C94A8010C94A8010F
:100010000C94A8010C94A8010C94A8010C94A801BC
:100020000C94A8010C94A8010C94A8010C94A801AC
:100030000C94A8010C94A8010C94A8010C94A8019C
:100040000C94A8010C94A8010C94A8010C94A8018C
:100050000C94A8010C94A8010C94A8010C94A8017C
:100060000C94A8010C94A8010C94A8010C94A8016C
:100070000C94A8010C94A8010C94A8010C94A8015C
:100080000C94A8010C94A8010C94A8010C94A8014C
:100090000C94A8010C94A8010C94A8010C94A8013C
:1000A0000C94A8010C94A8010C94A8010C94A8012C
:1000B0000C94A8010C94A8010C94A8010C94A8011C
:1000C0000C94A8010C94A8010C94A80111241FBE43
:1000D000CFEFD1E2DEBFCDBF00E00CBF0E947C00BD
:0800E0000C947200F894FFCFAC
:0F00E80031003000306230313030303030310094
:1000F800CF93DF93CDB7DEB763970FB6F894DEBF23
:100108000FBECDBF83E081B912B817B82CEE30E02E
:1001180040E08BE0F901DE011996742F0E949301EB
:10012800A12CB12C2BC0309912C0FE013196DF01F1
:100138000D900020E9F7CD0122E030E048EE50E0D4
:1001480060E001970E945801BFEFAB1ABB0A3199D2
:1001580015C0FE013196DF010D900020E9F7CD01B1
:1001680022E030E04AEE50E060E001970E9458013A
:10017800BFEFAB1ABB0A02C0A12CB12C28E0A21613
:10018800B1048CF288E0A816B10409F047C0CE018A
:1001980001960E948301C12CD12CE12CF12C25C0A1
:1001A800E1E0F0E0EC0FFD1FEE0DFF1D9081E9E0AE
:1001B800F0E0EC0FFD1FE00FF11F8081981303C0E2
:1001C8009FEFC91AD90A0F5F1F4F02C002E010E063
:1001D800BE01675F7F4F80E80E9471010197081791
:1001E8001907F0F2AFEFEA1AFA0ABE016F5F7F4F04
:1001F80080E80E947101E816F90640F3B8E0CB16D2
:10020800D10419F40E941E0109C021E0C21AD108C4
:1002180087E0C816D10410F40E943B019FEFA0E7C5
:10022800B2E09150A040B040E1F700C00000329B1E
:04023800A3CFA4CFDD
:10023C0080E090E016C02FEF31EE44E021503040CA
:10024C004040E1F700C0000023E022B92FEF31EE6F
:10025C0044E0215030404040E1F700C0000012B8AB
:0A026C000196833091053CF30895DC
:1002760080E090E016C02FEF34E34CE02150304090
:100286004040E1F700C0000023E022B92FEF34E33D
:100296004CE0215030404040E1F700C0000012B869
:0A02A6000196823091053CF30895A3
:1002B000CF92DF92EF92DC016A01E62E280F391F00
:1002C000A217B30751F0F6015E2D0E94A1016D93B4
:1002D0004FEFC41AD40AE40AF3CFEF90DF90CF9027
:0202E00008957F
:1002E2009B01482FA82FCB01FC015A2F0E94A1018C
:1002F200662319F00196A11DF7CF642FA901841B73
:04030200950B0895BA
:10030600DC01FC01672F71917723E1F7329704C076
:100316007C916D9370836291AE17BF07C8F3089501
:10032600992777FD06C07BBF07900D920197E1F7ED
:0C033600089501900D920197E1F70895E1
:0E03420057FD03C05BBF679108956081089569
:040350000C94000009
:00000001FF
