:100000000C9466000C9480010C9480010C94800187
:100010000C9480010C9480010C9480010C9480015C
:100020000C9480010C9480010C9480010C9480014C
:100030000C9480010C9480010C9480010C9480013C
:100040000C9480010C9480010C9480010C9480012C
:100050000C9480010C9480010C9480010C9480011C
:100060000C9480010C9480010C9480010C9480010C
:100070000C9480010C9480010C9480010C948001FC
:100080000C9480010C9480010C9480010C948001EC
:100090000C9480010C9480010C9480010C948001DC
:1000A0000C9480010C9480010C9480010C948001CC
:1000B0000C9480010C9480010C9480010C948001BC
:1000C0000C9480010C9480010C94800111241FBEBB
:1000D000CFEFD1E2DEBFCDBF00E00CBF0E947900C0
:0800E0000C947200F894FFCFAC
:0900E8005F5261736869745F00E6
:1000F200CF93DF93CDB7DEB729970FB6F894DEBF63
:100102000FBECDBF28EE30E040E089E0F901DE010C
:100112001196742F0E945D010E9476010E94CA000E
:1001220000E010E016C060E070E0802F0E946B01DA
:10013200CE0101960E9413012FEF80E792E0215039
:1001420080409040E1F700C000000E9476010F5FFE
:100152001F4F0730110538F307E010E016C060E0CA
:1001620070E0802F0E946B01CE0101960E94130164
:100172002FEF80E792E0215080409040E1F700C0ED
:1001820000000E94760101501109101611063CF37D
:02019200C7CFD5
:100194008FE295E70197F1F700C0000083E00E9429
:1001A4002F018FE39FE10197F1F700C0000083E086
:1001B4000E942F0187EC90E00197F1F700C0000046
:1001C40083E00E942F018FEC97E00197F1F700C0C4
:1001D400000082E00E942F018FEC97E00197F1F775
:1001E40000C0000060E088E20E9446018FEC97E0C6
:1001F4000197F1F700C0000060E08CE00E94460126
:100204008FEC97E00197F1F700C0000060E086E012
:100214000E9446018FEC97E00197F1F700C00000BF
:0202240008953B
:100226000F931F93CF93DF938C01C0E0D0E009C0FA
:100236000E947C018FE19EE40197F1F700C0000067
:100246002196F801EC0FFD1F80818111F1CFDF911E
:08025600CF911F910F91089553
:10025E008295807F95B1926095B995E89A95F1F760
:10026E00000092B19F7092B992B1892B82B985B17B
:0E027E008D7F85B985E88A95F1F70000089517
:10028C00CF93C82F611104C085B18E7F85B903C08F
:10029C0085B1816085B98C2F82958F7090E00E941A
:0E02AC002F018C2F90E00E942F01CF9108951A
:1002BA00992777FD06C07BBF07900D920197E1F75A
:0C02CA00089501900D920197E1F708954E
:1002D60090E4699F800D1124806860E070E090E0F2
:0602E6000E94460108958C
:0C02EC0012B88FEF81B915B884B90895DD
:0802F80061E00E944601089537
:040300000C94000059
:00000001FF
